{
  "contractName": "DiceBattle",
  "abi": [
    {
      "inputs": [
        {
          "internalType": "contract Dice",
          "name": "diceAddress",
          "type": "address"
        }
      ],
      "payable": false,
      "stateMutability": "nonpayable",
      "type": "constructor"
    },
    {
      "anonymous": false,
      "inputs": [
        {
          "indexed": false,
          "internalType": "address",
          "name": "player1",
          "type": "address"
        },
        {
          "indexed": false,
          "internalType": "uint256",
          "name": "player1Dice",
          "type": "uint256"
        },
        {
          "indexed": false,
          "internalType": "address",
          "name": "player2",
          "type": "address"
        },
        {
          "indexed": false,
          "internalType": "uint256",
          "name": "player2Dice",
          "type": "uint256"
        }
      ],
      "name": "BattleDraw",
      "type": "event"
    },
    {
      "anonymous": false,
      "inputs": [
        {
          "indexed": false,
          "internalType": "address",
          "name": "player1",
          "type": "address"
        },
        {
          "indexed": false,
          "internalType": "address",
          "name": "player2",
          "type": "address"
        },
        {
          "indexed": false,
          "internalType": "uint256",
          "name": "player1Dice",
          "type": "uint256"
        },
        {
          "indexed": false,
          "internalType": "uint256",
          "name": "player2Dice",
          "type": "uint256"
        }
      ],
      "name": "BattleStarted",
      "type": "event"
    },
    {
      "anonymous": false,
      "inputs": [
        {
          "indexed": false,
          "internalType": "address",
          "name": "player1",
          "type": "address"
        },
        {
          "indexed": false,
          "internalType": "address",
          "name": "player2",
          "type": "address"
        }
      ],
      "name": "add_enemy",
      "type": "event"
    },
    {
      "anonymous": false,
      "inputs": [
        {
          "indexed": false,
          "internalType": "address",
          "name": "winner",
          "type": "address"
        },
        {
          "indexed": false,
          "internalType": "uint256",
          "name": "winningDiceId",
          "type": "uint256"
        }
      ],
      "name": "battlewin",
      "type": "event"
    },
    {
      "constant": false,
      "inputs": [
        {
          "internalType": "address",
          "name": "enemy",
          "type": "address"
        }
      ],
      "name": "setBattlePair",
      "outputs": [],
      "payable": false,
      "stateMutability": "nonpayable",
      "type": "function"
    },
    {
      "constant": false,
      "inputs": [
        {
          "internalType": "uint256",
          "name": "myDiceId",
          "type": "uint256"
        },
        {
          "internalType": "uint256",
          "name": "enemyDiceId",
          "type": "uint256"
        }
      ],
      "name": "battle",
      "outputs": [],
      "payable": false,
      "stateMutability": "nonpayable",
      "type": "function"
    },
    {
      "constant": true,
      "inputs": [
        {
          "internalType": "address",
          "name": "player",
          "type": "address"
        }
      ],
      "name": "getBattlePair",
      "outputs": [
        {
          "internalType": "address",
          "name": "",
          "type": "address"
        }
      ],
      "payable": false,
      "stateMutability": "view",
      "type": "function"
    }
  ],
  "bytecode": "0x608060405234801561001057600080fd5b50604051611fcd380380611fcd8339818101604052602081101561003357600080fd5b8101908080519060200190929190505050806000806101000a81548173ffffffffffffffffffffffffffffffffffffffff021916908373ffffffffffffffffffffffffffffffffffffffff16021790555050611f39806100946000396000f3fe608060405234801561001057600080fd5b50600436106100415760003560e01c806329bcf55d146100465780632a0c5221146100ca578063bc8c1ee714610102575b600080fd5b6100886004803603602081101561005c57600080fd5b81019080803573ffffffffffffffffffffffffffffffffffffffff169060200190929190505050610146565b604051808273ffffffffffffffffffffffffffffffffffffffff1673ffffffffffffffffffffffffffffffffffffffff16815260200191505060405180910390f35b610100600480360360408110156100e057600080fd5b8101908080359060200190929190803590602001909291905050506101af565b005b6101446004803603602081101561011857600080fd5b81019080803573ffffffffffffffffffffffffffffffffffffffff169060200190929190505050611665565b005b6000600160008373ffffffffffffffffffffffffffffffffffffffff1673ffffffffffffffffffffffffffffffffffffffff16815260200190815260200160002060009054906101000a900473ffffffffffffffffffffffffffffffffffffffff169050919050565b6000600160003373ffffffffffffffffffffffffffffffffffffffff1673ffffffffffffffffffffffffffffffffffffffff16815260200190815260200160002060009054906101000a900473ffffffffffffffffffffffffffffffffffffffff1690503073ffffffffffffffffffffffffffffffffffffffff166000809054906101000a900473ffffffffffffffffffffffffffffffffffffffff1673ffffffffffffffffffffffffffffffffffffffff1663c41a360a856040518263ffffffff1660e01b81526004018082815260200191505060206040518083038186803b15801561029c57600080fd5b505afa1580156102b0573d6000803e3d6000fd5b505050506040513d60208110156102c657600080fd5b810190808051906020019092919050505073ffffffffffffffffffffffffffffffffffffffff1614610343576040517f08c379a000000000000000000000000000000000000000000000000000000000815260040180806020018281038252602c815260200180611e8e602c913960400191505060405180910390fd5b3073ffffffffffffffffffffffffffffffffffffffff166000809054906101000a900473ffffffffffffffffffffffffffffffffffffffff1673ffffffffffffffffffffffffffffffffffffffff1663c41a360a846040518263ffffffff1660e01b81526004018082815260200191505060206040518083038186803b1580156103cc57600080fd5b505afa1580156103e0573d6000803e3d6000fd5b505050506040513d60208110156103f657600080fd5b810190808051906020019092919050505073ffffffffffffffffffffffffffffffffffffffff1614610473576040517f08c379a000000000000000000000000000000000000000000000000000000000815260040180806020018281038252602e815260200180611e1c602e913960400191505060405180910390fd5b3373ffffffffffffffffffffffffffffffffffffffff166000809054906101000a900473ffffffffffffffffffffffffffffffffffffffff1673ffffffffffffffffffffffffffffffffffffffff1663f2d03fcf856040518263ffffffff1660e01b81526004018082815260200191505060206040518083038186803b1580156104fc57600080fd5b505afa158015610510573d6000803e3d6000fd5b505050506040513d602081101561052657600080fd5b810190808051906020019092919050505073ffffffffffffffffffffffffffffffffffffffff16146105c0576040517f08c379a000000000000000000000000000000000000000000000000000000000815260040180806020018281038252601e8152602001807f596f75206d757374206f776e20746865206469636520656e74657265642e000081525060200191505060405180910390fd5b600073ffffffffffffffffffffffffffffffffffffffff168173ffffffffffffffffffffffffffffffffffffffff161415610663576040517f08c379a000000000000000000000000000000000000000000000000000000000815260040180806020018281038252601e8152602001807f596f7520646f206e6f742068617665206120626174746c6520706169722e000081525060200191505060405180910390fd5b3373ffffffffffffffffffffffffffffffffffffffff16600160008060009054906101000a900473ffffffffffffffffffffffffffffffffffffffff1673ffffffffffffffffffffffffffffffffffffffff1663f2d03fcf866040518263ffffffff1660e01b81526004018082815260200191505060206040518083038186803b1580156106f057600080fd5b505afa158015610704573d6000803e3d6000fd5b505050506040513d602081101561071a57600080fd5b810190808051906020019092919050505073ffffffffffffffffffffffffffffffffffffffff1673ffffffffffffffffffffffffffffffffffffffff16815260200190815260200160002060009054906101000a900473ffffffffffffffffffffffffffffffffffffffff1673ffffffffffffffffffffffffffffffffffffffff16146107f2576040517f08c379a0000000000000000000000000000000000000000000000000000000008152600401808060200182810382526023815260200180611e4a6023913960400191505060405180910390fd5b8073ffffffffffffffffffffffffffffffffffffffff166000809054906101000a900473ffffffffffffffffffffffffffffffffffffffff1673ffffffffffffffffffffffffffffffffffffffff1663f2d03fcf846040518263ffffffff1660e01b81526004018082815260200191505060206040518083038186803b15801561087b57600080fd5b505afa15801561088f573d6000803e3d6000fd5b505050506040513d60208110156108a557600080fd5b810190808051906020019092919050505073ffffffffffffffffffffffffffffffffffffffff161461093f576040517f08c379a00000000000000000000000000000000000000000000000000000000081526004018080602001828103825260208152602001807f456e656d79206d757374206f776e20746865206469636520656e74657265642e81525060200191505060405180910390fd5b7f8853ac66059f85b9c999cea0edccd77084e1bc2fb8f01d57a41ca9528362e9d933828585604051808573ffffffffffffffffffffffffffffffffffffffff1673ffffffffffffffffffffffffffffffffffffffff1681526020018473ffffffffffffffffffffffffffffffffffffffff1673ffffffffffffffffffffffffffffffffffffffff16815260200183815260200182815260200194505050505060405180910390a16000809054906101000a900473ffffffffffffffffffffffffffffffffffffffff1673ffffffffffffffffffffffffffffffffffffffff16631f7b4f30846040518263ffffffff1660e01b815260040180828152602001915050600060405180830381600087803b158015610a5a57600080fd5b505af1158015610a6e573d6000803e3d6000fd5b505050506000809054906101000a900473ffffffffffffffffffffffffffffffffffffffff1673ffffffffffffffffffffffffffffffffffffffff16631f7b4f30836040518263ffffffff1660e01b815260040180828152602001915050600060405180830381600087803b158015610ae657600080fd5b505af1158015610afa573d6000803e3d6000fd5b505050506000809054906101000a900473ffffffffffffffffffffffffffffffffffffffff1673ffffffffffffffffffffffffffffffffffffffff16631e76dcdd846040518263ffffffff1660e01b815260040180828152602001915050600060405180830381600087803b158015610b7257600080fd5b505af1158015610b86573d6000803e3d6000fd5b505050506000809054906101000a900473ffffffffffffffffffffffffffffffffffffffff1673ffffffffffffffffffffffffffffffffffffffff16631e76dcdd836040518263ffffffff1660e01b815260040180828152602001915050600060405180830381600087803b158015610bfe57600080fd5b505af1158015610c12573d6000803e3d6000fd5b5050505060008060009054906101000a900473ffffffffffffffffffffffffffffffffffffffff1673ffffffffffffffffffffffffffffffffffffffff1663a98c5b71856040518263ffffffff1660e01b81526004018082815260200191505060206040518083038186803b158015610c8a57600080fd5b505afa158015610c9e573d6000803e3d6000fd5b505050506040513d6020811015610cb457600080fd5b8101908080519060200190929190505050905060008060009054906101000a900473ffffffffffffffffffffffffffffffffffffffff1673ffffffffffffffffffffffffffffffffffffffff1663a98c5b71856040518263ffffffff1660e01b81526004018082815260200191505060206040518083038186803b158015610d3b57600080fd5b505afa158015610d4f573d6000803e3d6000fd5b505050506040513d6020811015610d6557600080fd5b8101908080519060200190929190505050905060003390506000600160008373ffffffffffffffffffffffffffffffffffffffff1673ffffffffffffffffffffffffffffffffffffffff16815260200190815260200160002060009054906101000a900473ffffffffffffffffffffffffffffffffffffffff1690508260ff168460ff161115610fdf577faac83b278cd22aa29942f7bb8d56009ede7de61ae1698419e82507650d5680ff3388604051808373ffffffffffffffffffffffffffffffffffffffff1673ffffffffffffffffffffffffffffffffffffffff1681526020018281526020019250505060405180910390a16000809054906101000a900473ffffffffffffffffffffffffffffffffffffffff1673ffffffffffffffffffffffffffffffffffffffff1663b7760c8f88846040518363ffffffff1660e01b8152600401808381526020018273ffffffffffffffffffffffffffffffffffffffff1673ffffffffffffffffffffffffffffffffffffffff16815260200192505050600060405180830381600087803b158015610f0257600080fd5b505af1158015610f16573d6000803e3d6000fd5b505050506000809054906101000a900473ffffffffffffffffffffffffffffffffffffffff1673ffffffffffffffffffffffffffffffffffffffff1663b7760c8f87846040518363ffffffff1660e01b8152600401808381526020018273ffffffffffffffffffffffffffffffffffffffff1673ffffffffffffffffffffffffffffffffffffffff16815260200192505050600060405180830381600087803b158015610fc257600080fd5b505af1158015610fd6573d6000803e3d6000fd5b5050505061155e565b8360ff168360ff1611156111dd577faac83b278cd22aa29942f7bb8d56009ede7de61ae1698419e82507650d5680ff8587604051808373ffffffffffffffffffffffffffffffffffffffff1673ffffffffffffffffffffffffffffffffffffffff1681526020018281526020019250505060405180910390a16000809054906101000a900473ffffffffffffffffffffffffffffffffffffffff1673ffffffffffffffffffffffffffffffffffffffff1663b7760c8f88836040518363ffffffff1660e01b8152600401808381526020018273ffffffffffffffffffffffffffffffffffffffff1673ffffffffffffffffffffffffffffffffffffffff16815260200192505050600060405180830381600087803b15801561110057600080fd5b505af1158015611114573d6000803e3d6000fd5b505050506000809054906101000a900473ffffffffffffffffffffffffffffffffffffffff1673ffffffffffffffffffffffffffffffffffffffff1663b7760c8f87836040518363ffffffff1660e01b8152600401808381526020018273ffffffffffffffffffffffffffffffffffffffff1673ffffffffffffffffffffffffffffffffffffffff16815260200192505050600060405180830381600087803b1580156111c057600080fd5b505af11580156111d4573d6000803e3d6000fd5b5050505061155d565b7fdcdf24eb87ddea6bbc16a5a81cc16437d66427aac7c7907232cde56bda81d0a033888789604051808573ffffffffffffffffffffffffffffffffffffffff1673ffffffffffffffffffffffffffffffffffffffff1681526020018481526020018373ffffffffffffffffffffffffffffffffffffffff1673ffffffffffffffffffffffffffffffffffffffff16815260200182815260200194505050505060405180910390a16000809054906101000a900473ffffffffffffffffffffffffffffffffffffffff1673ffffffffffffffffffffffffffffffffffffffff1663b7760c8f886000809054906101000a900473ffffffffffffffffffffffffffffffffffffffff1673ffffffffffffffffffffffffffffffffffffffff1663f2d03fcf8b6040518263ffffffff1660e01b81526004018082815260200191505060206040518083038186803b15801561133457600080fd5b505afa158015611348573d6000803e3d6000fd5b505050506040513d602081101561135e57600080fd5b81019080805190602001909291905050506040518363ffffffff1660e01b8152600401808381526020018273ffffffffffffffffffffffffffffffffffffffff1673ffffffffffffffffffffffffffffffffffffffff16815260200192505050600060405180830381600087803b1580156113d857600080fd5b505af11580156113ec573d6000803e3d6000fd5b505050506000809054906101000a900473ffffffffffffffffffffffffffffffffffffffff1673ffffffffffffffffffffffffffffffffffffffff1663b7760c8f876000809054906101000a900473ffffffffffffffffffffffffffffffffffffffff1673ffffffffffffffffffffffffffffffffffffffff1663f2d03fcf8a6040518263ffffffff1660e01b81526004018082815260200191505060206040518083038186803b1580156114a057600080fd5b505afa1580156114b4573d6000803e3d6000fd5b505050506040513d60208110156114ca57600080fd5b81019080805190602001909291905050506040518363ffffffff1660e01b8152600401808381526020018273ffffffffffffffffffffffffffffffffffffffff1673ffffffffffffffffffffffffffffffffffffffff16815260200192505050600060405180830381600087803b15801561154457600080fd5b505af1158015611558573d6000803e3d6000fd5b505050505b5b6000600160003373ffffffffffffffffffffffffffffffffffffffff1673ffffffffffffffffffffffffffffffffffffffff16815260200190815260200160002060006101000a81548173ffffffffffffffffffffffffffffffffffffffff021916908373ffffffffffffffffffffffffffffffffffffffff1602179055506000600160008773ffffffffffffffffffffffffffffffffffffffff1673ffffffffffffffffffffffffffffffffffffffff16815260200190815260200160002060006101000a81548173ffffffffffffffffffffffffffffffffffffffff021916908373ffffffffffffffffffffffffffffffffffffffff16021790555050505050505050565b60606000809054906101000a900473ffffffffffffffffffffffffffffffffffffffff1673ffffffffffffffffffffffffffffffffffffffff16631156f37e306040518263ffffffff1660e01b8152600401808273ffffffffffffffffffffffffffffffffffffffff1673ffffffffffffffffffffffffffffffffffffffff16815260200191505060006040518083038186803b15801561170557600080fd5b505afa158015611719573d6000803e3d6000fd5b505050506040513d6000823e3d601f19601f82011682018060405250602081101561174357600080fd5b810190808051604051939291908464010000000082111561176357600080fd5b8382019150602082018581111561177957600080fd5b825186602082028301116401000000008211171561179657600080fd5b8083526020830192505050908051906020019060200280838360005b838110156117cd5780820151818401526020810190506117b2565b505050509050016040525050509050600080905060008090505b82518110156118f9573373ffffffffffffffffffffffffffffffffffffffff166000809054906101000a900473ffffffffffffffffffffffffffffffffffffffff1673ffffffffffffffffffffffffffffffffffffffff1663f2d03fcf85848151811061185057fe5b60200260200101516040518263ffffffff1660e01b81526004018082815260200191505060206040518083038186803b15801561188c57600080fd5b505afa1580156118a0573d6000803e3d6000fd5b505050506040513d60208110156118b657600080fd5b810190808051906020019092919050505073ffffffffffffffffffffffffffffffffffffffff1614156118ec57600191506118f9565b80806001019150506117e7565b5080611950576040517f08c379a0000000000000000000000000000000000000000000000000000000008152600401808060200182810382526021815260200180611e6d6021913960400191505060405180910390fd5b8273ffffffffffffffffffffffffffffffffffffffff163373ffffffffffffffffffffffffffffffffffffffff1614156119f2576040517f08c379a000000000000000000000000000000000000000000000000000000000815260040180806020018281038252601b8152602001807f596f752063616e6e6f7420626174746c6520796f757273656c662e000000000081525060200191505060405180910390fd5b600073ffffffffffffffffffffffffffffffffffffffff16600160003373ffffffffffffffffffffffffffffffffffffffff1673ffffffffffffffffffffffffffffffffffffffff16815260200190815260200160002060009054906101000a900473ffffffffffffffffffffffffffffffffffffffff1673ffffffffffffffffffffffffffffffffffffffff161480611b1657503373ffffffffffffffffffffffffffffffffffffffff16600160008573ffffffffffffffffffffffffffffffffffffffff1673ffffffffffffffffffffffffffffffffffffffff16815260200190815260200160002060009054906101000a900473ffffffffffffffffffffffffffffffffffffffff1673ffffffffffffffffffffffffffffffffffffffff16145b611b6b576040517f08c379a000000000000000000000000000000000000000000000000000000000815260040180806020018281038252604b815260200180611eba604b913960600191505060405180910390fd5b600073ffffffffffffffffffffffffffffffffffffffff16600160008573ffffffffffffffffffffffffffffffffffffffff1673ffffffffffffffffffffffffffffffffffffffff16815260200190815260200160002060009054906101000a900473ffffffffffffffffffffffffffffffffffffffff1673ffffffffffffffffffffffffffffffffffffffff161480611c8f57503373ffffffffffffffffffffffffffffffffffffffff16600160008573ffffffffffffffffffffffffffffffffffffffff1673ffffffffffffffffffffffffffffffffffffffff16815260200190815260200160002060009054906101000a900473ffffffffffffffffffffffffffffffffffffffff1673ffffffffffffffffffffffffffffffffffffffff16145b611d01576040517f08c379a000000000000000000000000000000000000000000000000000000000815260040180806020018281038252601b8152602001807f456e656d79206d75737420616772656520746f20626174746c652e000000000081525060200191505060405180910390fd5b82600160003373ffffffffffffffffffffffffffffffffffffffff1673ffffffffffffffffffffffffffffffffffffffff16815260200190815260200160002060006101000a81548173ffffffffffffffffffffffffffffffffffffffff021916908373ffffffffffffffffffffffffffffffffffffffff1602179055507fd5596acdfab8aabfec8cce781394cf21ffc82a61d225256e296f226ad4cba7ea3384604051808373ffffffffffffffffffffffffffffffffffffffff1673ffffffffffffffffffffffffffffffffffffffff1681526020018273ffffffffffffffffffffffffffffffffffffffff1673ffffffffffffffffffffffffffffffffffffffff1681526020019250505060405180910390a150505056fe656e656d79206469636520776173206e6f74207472616e73666572656420746f207468697320636f6e7472616374656e656d7920646964206e6f742073657420796f7520617320626174746c6570616972596f75206e65656420746f207472616e7366657220612064696365206669727374746865206469636520776173206e6f74207472616e73666572656420746f207468697320636f6e7472616374596f75206861766520616c72656164792063686f73656e20616e20656e656d79206f722074686520656e656d7920646964206e6f742063686f6f736520796f7520617320656e656d65792ea265627a7a72315820ef5d29a083787e22beb5d9b4a093071d5542951e148e12cabce01fef3f7b04c164736f6c63430005110032",
  "source": "pragma solidity ^0.5.0;\nimport \"./Dice.sol\";\n\ncontract DiceBattle {\n    Dice diceContract;\n\n    //mappings\n    mapping(address => address) battle_pair;\n\n    // Events\n    event add_enemy(address player1, address player2);\n    event BattleStarted(address player1, address player2, uint256 player1Dice, uint256 player2Dice);\n    event battlewin(address winner, uint256 winningDiceId);\n    event BattleDraw(address player1, uint256 player1Dice, address player2, uint256 player2Dice);\n\n    //constructors\n    constructor(Dice diceAddress) public {\n        diceContract = diceAddress;\n    }\n\n    //functions \n    function setBattlePair(address enemy) public {\n        // Require that only prev owner can allow an enemy\n        uint256[] memory diceOwned = diceContract.getDices(address(this));\n        bool check = false;\n        for (uint256 i = 0; i < diceOwned.length; i++) {\n            if (diceContract.getPrevOwner(diceOwned[i]) == msg.sender) {\n                check = true;\n                break;\n            }\n        }\n        require(check, \"You need to transfer a dice first\");\n\n\n        // Each player can only select one enemy\n        require(msg.sender != enemy, \"You cannot battle yourself.\");\n        require(battle_pair[msg.sender] == address(0) || battle_pair[enemy] == msg.sender, \"You have already chosen an enemy or the enemy did not choose you as enemey.\");\n        require(battle_pair[enemy] == address(0) || battle_pair[enemy] == msg.sender, \"Enemy must agree to battle.\");\n\n        // Set the battle pair\n        battle_pair[msg.sender] = enemy;\n\n        //emit event\n        emit add_enemy(msg.sender, enemy);\n    }\n\n    function battle(uint256 myDiceId, uint256 enemyDiceId) public {\n        // Require that battle_pairs align, ie each player has accepted a battle with the other\n        address enemy = battle_pair[msg.sender];\n\n        require(diceContract.getOwner(myDiceId) == address(this), \"the dice was not transfered to this contract\"); //check if dice is transfered to this contract\n        require(diceContract.getOwner(enemyDiceId) == address(this), \"enemy dice was not transfered to this contract\"); //check if enemy dice is transfered to this contract\n        require(diceContract.getPrevOwner(myDiceId) == msg.sender, \"You must own the dice entered.\"); // check if the dice is owned by the user\n        require(enemy != address(0), \"You do not have a battle pair.\"); //check if there is a pair\n        require(battle_pair[diceContract.getPrevOwner(enemyDiceId)] == msg.sender, \"enemy did not set you as battlepair\"); //check if enemy have set you as enemy\n        require(diceContract.getPrevOwner(enemyDiceId) == enemy, \"Enemy must own the dice entered.\"); // check if the dice is owned by enemy\n\n        // Run battle\n        emit BattleStarted(msg.sender, enemy, myDiceId, enemyDiceId);\n\n        // Start the battle by rolling both dice\n        diceContract.roll(myDiceId);\n        diceContract.roll(enemyDiceId);\n\n        // Stop the rolls and get the results\n        diceContract.stopRoll(myDiceId);\n        diceContract.stopRoll(enemyDiceId);\n\n        uint8 myRoll = diceContract.getDiceNumber(myDiceId);\n        uint8 enemyRoll = diceContract.getDiceNumber(enemyDiceId);\n\n        address userAdd = msg.sender;\n        address enemyAdd = battle_pair[userAdd];\n\n        // Determine the winner\n        if (myRoll > enemyRoll) {\n            // Transfer both dice to user\n            emit battlewin(msg.sender, myDiceId);\n            diceContract.transfer(myDiceId, userAdd);\n            diceContract.transfer(enemyDiceId, userAdd);\n        } else if (enemyRoll > myRoll) {\n            // Transfer both dice to enemy\n            emit battlewin(enemy, enemyDiceId);\n            diceContract.transfer(myDiceId, enemyAdd);\n            diceContract.transfer(enemyDiceId, enemyAdd);\n        } else {\n            // It's a draw, send dice back to their owner\n            emit BattleDraw(msg.sender, myDiceId, enemy, enemyDiceId);\n            diceContract.transfer(myDiceId, diceContract.getPrevOwner(myDiceId));\n            diceContract.transfer(enemyDiceId, diceContract.getPrevOwner(enemyDiceId));\n        }\n\n        // Clear battle pair once the battle is over\n        battle_pair[msg.sender] = address(0);\n        battle_pair[enemy] = address(0);\n    }\n\n    //getters\n    function getBattlePair(address player) public view returns (address) {\n        return battle_pair[player];\n    }\n    \n    //setters\n}",
  "sourcePath": "/home/user/school/schoolstuff/IS4302 Blockchain and Distributed Ledger Technologies/lab/lab4/project/contracts/DiceBattle.sol",
  "compiler": {
    "name": "solc",
    "version": "0.5.17+commit.d19bba13.Emscripten.clang"
  },
  "schemaVersion": "3.4.16",
  "updatedAt": "2024-10-19T17:04:35.633Z",
  "networkType": "ethereum",
  "devdoc": {
    "methods": {}
  },
  "userdoc": {
    "methods": {}
  }
}