{
  "contractName": "DiceMarket",
  "abi": [
    {
      "inputs": [
        {
          "internalType": "uint256",
          "name": "_commissionFee",
          "type": "uint256"
        },
        {
          "internalType": "address",
          "name": "diceAddress",
          "type": "address"
        }
      ],
      "payable": false,
      "stateMutability": "nonpayable",
      "type": "constructor"
    },
    {
      "anonymous": false,
      "inputs": [
        {
          "indexed": false,
          "internalType": "uint256",
          "name": "diceId",
          "type": "uint256"
        },
        {
          "indexed": false,
          "internalType": "address",
          "name": "buyer",
          "type": "address"
        },
        {
          "indexed": false,
          "internalType": "uint256",
          "name": "price",
          "type": "uint256"
        }
      ],
      "name": "diceBought",
      "type": "event"
    },
    {
      "anonymous": false,
      "inputs": [
        {
          "indexed": false,
          "internalType": "uint256",
          "name": "diceId",
          "type": "uint256"
        },
        {
          "indexed": false,
          "internalType": "uint256",
          "name": "price",
          "type": "uint256"
        },
        {
          "indexed": false,
          "internalType": "address",
          "name": "seller",
          "type": "address"
        }
      ],
      "name": "diceListed",
      "type": "event"
    },
    {
      "anonymous": false,
      "inputs": [
        {
          "indexed": false,
          "internalType": "uint256",
          "name": "diceId",
          "type": "uint256"
        }
      ],
      "name": "diceUnlisted",
      "type": "event"
    },
    {
      "constant": true,
      "inputs": [],
      "name": "commissionFee",
      "outputs": [
        {
          "internalType": "uint256",
          "name": "",
          "type": "uint256"
        }
      ],
      "payable": false,
      "stateMutability": "view",
      "type": "function"
    },
    {
      "constant": true,
      "inputs": [
        {
          "internalType": "uint256",
          "name": "",
          "type": "uint256"
        }
      ],
      "name": "listings",
      "outputs": [
        {
          "internalType": "uint256",
          "name": "price",
          "type": "uint256"
        },
        {
          "internalType": "address",
          "name": "seller",
          "type": "address"
        }
      ],
      "payable": false,
      "stateMutability": "view",
      "type": "function"
    },
    {
      "constant": true,
      "inputs": [],
      "name": "owner",
      "outputs": [
        {
          "internalType": "address",
          "name": "",
          "type": "address"
        }
      ],
      "payable": false,
      "stateMutability": "view",
      "type": "function"
    },
    {
      "constant": false,
      "inputs": [
        {
          "internalType": "uint256",
          "name": "diceId",
          "type": "uint256"
        },
        {
          "internalType": "uint256",
          "name": "price",
          "type": "uint256"
        }
      ],
      "name": "list",
      "outputs": [],
      "payable": false,
      "stateMutability": "nonpayable",
      "type": "function"
    },
    {
      "constant": false,
      "inputs": [
        {
          "internalType": "uint256",
          "name": "diceId",
          "type": "uint256"
        }
      ],
      "name": "unlist",
      "outputs": [],
      "payable": false,
      "stateMutability": "nonpayable",
      "type": "function"
    },
    {
      "constant": false,
      "inputs": [
        {
          "internalType": "uint256",
          "name": "diceId",
          "type": "uint256"
        }
      ],
      "name": "buy",
      "outputs": [],
      "payable": true,
      "stateMutability": "payable",
      "type": "function"
    },
    {
      "constant": false,
      "inputs": [
        {
          "internalType": "uint256",
          "name": "_commissionFee",
          "type": "uint256"
        }
      ],
      "name": "setCommission",
      "outputs": [],
      "payable": false,
      "stateMutability": "nonpayable",
      "type": "function"
    },
    {
      "constant": true,
      "inputs": [
        {
          "internalType": "uint256",
          "name": "diceId",
          "type": "uint256"
        }
      ],
      "name": "checkPrice",
      "outputs": [
        {
          "internalType": "uint256",
          "name": "",
          "type": "uint256"
        }
      ],
      "payable": false,
      "stateMutability": "view",
      "type": "function"
    }
  ],
  "bytecode": "0x608060405234801561001057600080fd5b506040516114ff3803806114ff8339818101604052604081101561003357600080fd5b81019080805190602001909291908051906020019092919050505033600260006101000a81548173ffffffffffffffffffffffffffffffffffffffff021916908373ffffffffffffffffffffffffffffffffffffffff16021790555081600181905550806000806101000a81548173ffffffffffffffffffffffffffffffffffffffff021916908373ffffffffffffffffffffffffffffffffffffffff1602179055505050611418806100e76000396000f3fe60806040526004361061007b5760003560e01c80638da5cb5b1161004e5780638da5cb5b1461017a578063bf5a4dd3146101d1578063d96a094a1461020c578063de74e57b1461023a5761007b565b80631de7463a14610080578063355e6b43146100cf57806350fd73671461010a5780636fb1eb0c1461014f575b600080fd5b34801561008c57600080fd5b506100b9600480360360208110156100a357600080fd5b81019080803590602001909291905050506102bc565b6040518082815260200191505060405180910390f35b3480156100db57600080fd5b50610108600480360360208110156100f257600080fd5b81019080803590602001909291905050506102dc565b005b34801561011657600080fd5b5061014d6004803603604081101561012d57600080fd5b81019080803590602001909291908035906020019092919050505061038c565b005b34801561015b57600080fd5b50610164610b8b565b6040518082815260200191505060405180910390f35b34801561018657600080fd5b5061018f610b91565b604051808273ffffffffffffffffffffffffffffffffffffffff1673ffffffffffffffffffffffffffffffffffffffff16815260200191505060405180910390f35b3480156101dd57600080fd5b5061020a600480360360208110156101f457600080fd5b8101908080359060200190929190505050610bb7565b005b6102386004803603602081101561022257600080fd5b8101908080359060200190929190505050610d9d565b005b34801561024657600080fd5b506102736004803603602081101561025d57600080fd5b8101908080359060200190929190505050611276565b604051808381526020018273ffffffffffffffffffffffffffffffffffffffff1673ffffffffffffffffffffffffffffffffffffffff1681526020019250505060405180910390f35b600060036000838152602001908152602001600020600001549050919050565b600260009054906101000a900473ffffffffffffffffffffffffffffffffffffffff1673ffffffffffffffffffffffffffffffffffffffff163373ffffffffffffffffffffffffffffffffffffffff1614610382576040517f08c379a00000000000000000000000000000000000000000000000000000000081526004018080602001828103825260218152602001806112eb6021913960400191505060405180910390fd5b8060018190555050565b816000600360008381526020019081526020016000206000015414610419576040517f08c379a00000000000000000000000000000000000000000000000000000000081526004018080602001828103825260168152602001807f4469636520697320616c7265616479206c69737465640000000000000000000081525060200191505060405180910390fd5b60606000809054906101000a900473ffffffffffffffffffffffffffffffffffffffff1673ffffffffffffffffffffffffffffffffffffffff16631156f37e306040518263ffffffff1660e01b8152600401808273ffffffffffffffffffffffffffffffffffffffff1673ffffffffffffffffffffffffffffffffffffffff16815260200191505060006040518083038186803b1580156104b957600080fd5b505afa1580156104cd573d6000803e3d6000fd5b505050506040513d6000823e3d601f19601f8201168201806040525060208110156104f757600080fd5b810190808051604051939291908464010000000082111561051757600080fd5b8382019150602082018581111561052d57600080fd5b825186602082028301116401000000008211171561054a57600080fd5b8083526020830192505050908051906020019060200280838360005b83811015610581578082015181840152602081019050610566565b505050509050016040525050509050600080905060008090505b82518110156106ad573373ffffffffffffffffffffffffffffffffffffffff166000809054906101000a900473ffffffffffffffffffffffffffffffffffffffff1673ffffffffffffffffffffffffffffffffffffffff1663f2d03fcf85848151811061060457fe5b60200260200101516040518263ffffffff1660e01b81526004018082815260200191505060206040518083038186803b15801561064057600080fd5b505afa158015610654573d6000803e3d6000fd5b505050506040513d602081101561066a57600080fd5b810190808051906020019092919050505073ffffffffffffffffffffffffffffffffffffffff1614156106a057600191506106ad565b808060010191505061059b565b5080610704576040517f08c379a00000000000000000000000000000000000000000000000000000000081526004018080602001828103825260218152602001806113a16021913960400191505060405180910390fd5b3073ffffffffffffffffffffffffffffffffffffffff166000809054906101000a900473ffffffffffffffffffffffffffffffffffffffff1673ffffffffffffffffffffffffffffffffffffffff1663c41a360a876040518263ffffffff1660e01b81526004018082815260200191505060206040518083038186803b15801561078d57600080fd5b505afa1580156107a1573d6000803e3d6000fd5b505050506040513d60208110156107b757600080fd5b810190808051906020019092919050505073ffffffffffffffffffffffffffffffffffffffff1614610834576040517f08c379a000000000000000000000000000000000000000000000000000000000815260040180806020018281038252603481526020018061136d6034913960400191505060405180910390fd5b66038d7ea4c68000600154026000809054906101000a900473ffffffffffffffffffffffffffffffffffffffff1673ffffffffffffffffffffffffffffffffffffffff1663a819604c876040518263ffffffff1660e01b81526004018082815260200191505060206040518083038186803b1580156108b257600080fd5b505afa1580156108c6573d6000803e3d6000fd5b505050506040513d60208110156108dc57600080fd5b81019080805190602001909291905050500166038d7ea4c680008502101561094f576040517f08c379a000000000000000000000000000000000000000000000000000000000815260040180806020018281038252603381526020018061130c6033913960400191505060405180910390fd5b3373ffffffffffffffffffffffffffffffffffffffff166000809054906101000a900473ffffffffffffffffffffffffffffffffffffffff1673ffffffffffffffffffffffffffffffffffffffff1663f2d03fcf876040518263ffffffff1660e01b81526004018082815260200191505060206040518083038186803b1580156109d857600080fd5b505afa1580156109ec573d6000803e3d6000fd5b505050506040513d6020811015610a0257600080fd5b810190808051906020019092919050505073ffffffffffffffffffffffffffffffffffffffff1614610a7f576040517f08c379a00000000000000000000000000000000000000000000000000000000081526004018080602001828103825260228152602001806113c26022913960400191505060405180910390fd5b60405180604001604052808581526020013373ffffffffffffffffffffffffffffffffffffffff16815250600360008781526020019081526020016000206000820151816000015560208201518160010160006101000a81548173ffffffffffffffffffffffffffffffffffffffff021916908373ffffffffffffffffffffffffffffffffffffffff1602179055509050507f0dbc9deaac2c0832ecc81dffd996594f6ae5d03742bb911a5376119c38dcdfa8858533604051808481526020018381526020018273ffffffffffffffffffffffffffffffffffffffff1673ffffffffffffffffffffffffffffffffffffffff168152602001935050505060405180910390a15050505050565b60015481565b600260009054906101000a900473ffffffffffffffffffffffffffffffffffffffff1681565b806000600360008381526020019081526020016000206000015411610c44576040517f08c379a00000000000000000000000000000000000000000000000000000000081526004018080602001828103825260128152602001807f44696365206973206e6f74206c6973746564000000000000000000000000000081525060200191505060405180910390fd5b813373ffffffffffffffffffffffffffffffffffffffff166003600083815260200190815260200160002060010160009054906101000a900473ffffffffffffffffffffffffffffffffffffffff1673ffffffffffffffffffffffffffffffffffffffff1614610d1c576040517f08c379a00000000000000000000000000000000000000000000000000000000081526004018080602001828103825260168152602001807f596f7520617265206e6f74207468652073656c6c65720000000000000000000081525060200191505060405180910390fd5b600360008481526020019081526020016000206000808201600090556001820160006101000a81549073ffffffffffffffffffffffffffffffffffffffff021916905550507f380abbe9763223bbef44baadd824f7918a77314cea32543b13ccfdab640ee364836040518082815260200191505060405180910390a1505050565b806000600360008381526020019081526020016000206000015411610e2a576040517f08c379a00000000000000000000000000000000000000000000000000000000081526004018080602001828103825260128152602001807f44696365206973206e6f74206c6973746564000000000000000000000000000081525060200191505060405180910390fd5b81346003600083815260200190815260200160002060000154811015610e9b576040517f08c379a000000000000000000000000000000000000000000000000000000000815260040180806020018281038252602e81526020018061133f602e913960400191505060405180910390fd5b610ea36112ba565b60036000868152602001908152602001600020604051806040016040529081600082015481526020016001820160009054906101000a900473ffffffffffffffffffffffffffffffffffffffff1673ffffffffffffffffffffffffffffffffffffffff1673ffffffffffffffffffffffffffffffffffffffff168152505090503373ffffffffffffffffffffffffffffffffffffffff16816020015173ffffffffffffffffffffffffffffffffffffffff161415610fc9576040517f08c379a000000000000000000000000000000000000000000000000000000000815260040180806020018281038252601e8152602001807f596f7520617265207468652073656c6c6572206f66207468652064696365000081525060200191505060405180910390fd5b80600001513411156110295760008160000151340390503373ffffffffffffffffffffffffffffffffffffffff166108fc829081150290604051600060405180830381858888f19350505050158015611026573d6000803e3d6000fd5b50505b600060015482600001510390506000826020015190508073ffffffffffffffffffffffffffffffffffffffff166108fc839081150290604051600060405180830381858888f19350505050158015611085573d6000803e3d6000fd5b50600260009054906101000a900473ffffffffffffffffffffffffffffffffffffffff1673ffffffffffffffffffffffffffffffffffffffff166108fc6001549081150290604051600060405180830381858888f193505050501580156110f0573d6000803e3d6000fd5b506000809054906101000a900473ffffffffffffffffffffffffffffffffffffffff1673ffffffffffffffffffffffffffffffffffffffff1663b7760c8f88336040518363ffffffff1660e01b8152600401808381526020018273ffffffffffffffffffffffffffffffffffffffff1673ffffffffffffffffffffffffffffffffffffffff16815260200192505050600060405180830381600087803b15801561119957600080fd5b505af11580156111ad573d6000803e3d6000fd5b50505050600360008881526020019081526020016000206000808201600090556001820160006101000a81549073ffffffffffffffffffffffffffffffffffffffff021916905550507f6a1e4d0f2c1c7ba28529fb15d39efc2db64f0b2b8381ce350708cba29029d65687338560000151604051808481526020018373ffffffffffffffffffffffffffffffffffffffff1673ffffffffffffffffffffffffffffffffffffffff168152602001828152602001935050505060405180910390a150505050505050565b60036020528060005260406000206000915090508060000154908060010160009054906101000a900473ffffffffffffffffffffffffffffffffffffffff16905082565b604051806040016040528060008152602001600073ffffffffffffffffffffffffffffffffffffffff168152509056fe4f6e6c79206f776e65722063616e2063616c6c20746869732066756e6374696f6e53656c6c696e67207072696365206e6565647320746f206265203e3d2076616c7565202b20636f6d6d697373696f6e206665655072696365206e6565647320746f206265203e3d206c697374696e672070726963652028696e2046696e6e657929796f75206e65656420746f207472616e7366657220746865206469636520746f207468697320636f6e7472616374206669727374596f75206e65656420746f207472616e7366657220612064696365206669727374596f7520617265206e6f7420746865206f776e6572206f6620746869732064696365a265627a7a7231582041c9651683c72a7f44c26fac2c75742c80b6a64d4e88192518a79e25f002a93e64736f6c63430005110032",
  "source": "// SPDX-License-Identifier: UNLICENSED\npragma solidity ^0.5.0;\n\nimport \"./Dice.sol\"; \n\ncontract DiceMarket {\n    Dice diceContract;\n\n    //variables\n    uint256 public commissionFee; // in finney\n    address public owner;\n\n    //structs\n    struct Listing {\n        uint256 price; // Listing price of the dice //setting the price in finney\n        address seller; // Address of the seller\n    }\n\n    //events\n    event diceListed(uint256 diceId, uint256 price, address seller);\n    event diceUnlisted(uint256 diceId);\n    event diceBought(uint256 diceId, address buyer, uint256 price);\n\n    //mappings\n    mapping(uint256 => Listing) public listings;\n\n    //modifiers\n    modifier onlyOwner() {\n        require(msg.sender == owner, \"Only owner can call this function\");\n        _;\n    }\n\n    modifier validBuyingPrice(uint256 diceId, uint256 price) {\n        require(price >= listings[diceId].price, \"Price needs to be >= listing price (in Finney)\");\n        _;\n    }\n\n    modifier isListed(uint256 diceId) {\n        require(listings[diceId].price > 0, \"Dice is not listed\");\n        _;\n    }\n\n    modifier notListed(uint256 diceId) {\n        require(listings[diceId].price == 0, \"Dice is already listed\");\n        _;\n    }\n\n    modifier isSeller(uint256 diceId) {\n        require(listings[diceId].seller == msg.sender, \"You are not the seller\");\n        _;\n    }\n\n    //Constructor\n    constructor(uint256 _commissionFee, address diceAddress) public {\n        owner = msg.sender;\n        commissionFee = _commissionFee;\n        diceContract = Dice(diceAddress);\n    }\n\n    //functions\n    function list(uint256 diceId, uint256 price) \n        public\n        notListed(diceId)\n    {   \n\n        uint256[] memory diceOwned = diceContract.getDices(address(this));\n        bool check = false;\n        for (uint256 i = 0; i < diceOwned.length; i++) {\n            if (diceContract.getPrevOwner(diceOwned[i]) == msg.sender) {\n                check = true;\n                break;\n            }\n        }\n        require(check, \"You need to transfer a dice first\");\n\n        require(diceContract.getOwner(diceId) == address(this), \"you need to transfer the dice to this contract first\");\n\n        require(price * 1 finney >= diceContract.getDiceValue(diceId) + commissionFee * 1 finney, \n            \"Selling price needs to be >= value + commission fee\");\n\n         require(diceContract.getPrevOwner(diceId) == msg.sender, \"You are not the owner of this dice\");\n\n        // List the dice on the market\n        listings[diceId] = Listing({\n            price: price,\n            seller: msg.sender\n        });\n\n        emit diceListed(diceId, price, msg.sender);\n    }\n\n    function unlist(uint256 diceId)\n        public\n        isListed(diceId)\n        isSeller(diceId)\n    {\n        delete listings[diceId];\n        emit diceUnlisted(diceId);\n    }\n\n    function buy(uint256 diceId)\n    public\n    payable\n    isListed(diceId)\n    validBuyingPrice(diceId, msg.value)\n    {\n        Listing memory listing = listings[diceId];\n\n        require(listing.seller != msg.sender, \"You are the seller of the dice\");\n\n        // Transfer excess funds back to the buyer if overpaid\n        if (msg.value > listing.price) {\n            uint256 excessAmount = msg.value - listing.price;\n            msg.sender.transfer(excessAmount);\n        }\n\n        // Transfer the funds to the seller minus the commission\n        uint256 sellerProceeds = listing.price - commissionFee;\n        address seller = listing.seller;\n        address(uint160(seller)).transfer(sellerProceeds);\n\n        // Transfer the commission to the marketplace owner\n        address(uint160(owner)).transfer(commissionFee);\n\n        // Transfer dice ownership to the buyer\n        diceContract.transfer(diceId, msg.sender);\n\n        // Remove the listing\n        delete listings[diceId];\n\n        emit diceBought(diceId, msg.sender, listing.price);\n    }\n\n\n    //setters\n    function setCommission(uint256 _commissionFee) public onlyOwner {\n        commissionFee = _commissionFee;\n    }\n\n    //getters\n    function checkPrice(uint256 diceId) public view returns(uint256) {\n        return listings[diceId].price;\n    }\n}",
  "sourcePath": "/home/user/school/schoolstuff/IS4302 Blockchain and Distributed Ledger Technologies/lab/lab4/project/contracts/DiceMarket.sol",
  "compiler": {
    "name": "solc",
    "version": "0.5.17+commit.d19bba13.Emscripten.clang"
  },
  "schemaVersion": "3.4.16",
  "updatedAt": "2024-10-19T17:04:35.638Z",
  "networkType": "ethereum",
  "devdoc": {
    "methods": {}
  },
  "userdoc": {
    "methods": {}
  }
}