{
  "contractName": "Dice",
  "abi": [
    {
      "anonymous": false,
      "inputs": [
        {
          "indexed": false,
          "internalType": "uint256",
          "name": "diceId",
          "type": "uint256"
        },
        {
          "indexed": false,
          "internalType": "address",
          "name": "from",
          "type": "address"
        },
        {
          "indexed": false,
          "internalType": "address",
          "name": "to",
          "type": "address"
        }
      ],
      "name": "DiceTransferred",
      "type": "event"
    },
    {
      "anonymous": false,
      "inputs": [
        {
          "indexed": false,
          "internalType": "uint256",
          "name": "diceId",
          "type": "uint256"
        },
        {
          "indexed": false,
          "internalType": "uint8",
          "name": "newNumber",
          "type": "uint8"
        }
      ],
      "name": "rolled",
      "type": "event"
    },
    {
      "anonymous": false,
      "inputs": [
        {
          "indexed": false,
          "internalType": "uint256",
          "name": "diceId",
          "type": "uint256"
        }
      ],
      "name": "rolling",
      "type": "event"
    },
    {
      "constant": true,
      "inputs": [
        {
          "internalType": "uint256",
          "name": "",
          "type": "uint256"
        }
      ],
      "name": "dices",
      "outputs": [
        {
          "internalType": "uint8",
          "name": "numberOfSides",
          "type": "uint8"
        },
        {
          "internalType": "uint8",
          "name": "color",
          "type": "uint8"
        },
        {
          "internalType": "uint8",
          "name": "currentNumber",
          "type": "uint8"
        },
        {
          "internalType": "enum Dice.diceState",
          "name": "state",
          "type": "uint8"
        },
        {
          "internalType": "uint256",
          "name": "creationValue",
          "type": "uint256"
        },
        {
          "internalType": "address",
          "name": "owner",
          "type": "address"
        },
        {
          "internalType": "address",
          "name": "prevOwner",
          "type": "address"
        }
      ],
      "payable": false,
      "stateMutability": "view",
      "type": "function"
    },
    {
      "constant": true,
      "inputs": [],
      "name": "numDices",
      "outputs": [
        {
          "internalType": "uint256",
          "name": "",
          "type": "uint256"
        }
      ],
      "payable": false,
      "stateMutability": "view",
      "type": "function"
    },
    {
      "constant": false,
      "inputs": [
        {
          "internalType": "uint256",
          "name": "diceId",
          "type": "uint256"
        }
      ],
      "name": "destroyDice",
      "outputs": [
        {
          "internalType": "uint256",
          "name": "",
          "type": "uint256"
        }
      ],
      "payable": false,
      "stateMutability": "nonpayable",
      "type": "function"
    },
    {
      "constant": false,
      "inputs": [
        {
          "internalType": "uint8",
          "name": "numberOfSides",
          "type": "uint8"
        },
        {
          "internalType": "uint8",
          "name": "color",
          "type": "uint8"
        }
      ],
      "name": "add",
      "outputs": [
        {
          "internalType": "uint256",
          "name": "",
          "type": "uint256"
        }
      ],
      "payable": true,
      "stateMutability": "payable",
      "type": "function"
    },
    {
      "constant": false,
      "inputs": [
        {
          "internalType": "uint256",
          "name": "diceId",
          "type": "uint256"
        }
      ],
      "name": "roll",
      "outputs": [],
      "payable": false,
      "stateMutability": "nonpayable",
      "type": "function"
    },
    {
      "constant": false,
      "inputs": [
        {
          "internalType": "uint256",
          "name": "diceId",
          "type": "uint256"
        }
      ],
      "name": "stopRoll",
      "outputs": [],
      "payable": false,
      "stateMutability": "nonpayable",
      "type": "function"
    },
    {
      "constant": false,
      "inputs": [
        {
          "internalType": "uint256",
          "name": "diceId",
          "type": "uint256"
        },
        {
          "internalType": "address",
          "name": "newOwner",
          "type": "address"
        }
      ],
      "name": "transfer",
      "outputs": [],
      "payable": false,
      "stateMutability": "nonpayable",
      "type": "function"
    },
    {
      "constant": true,
      "inputs": [
        {
          "internalType": "uint256",
          "name": "diceId",
          "type": "uint256"
        }
      ],
      "name": "amOwner",
      "outputs": [
        {
          "internalType": "bool",
          "name": "",
          "type": "bool"
        }
      ],
      "payable": false,
      "stateMutability": "view",
      "type": "function"
    },
    {
      "constant": true,
      "inputs": [],
      "name": "getLuckyTimes",
      "outputs": [
        {
          "internalType": "uint256",
          "name": "",
          "type": "uint256"
        }
      ],
      "payable": false,
      "stateMutability": "view",
      "type": "function"
    },
    {
      "constant": true,
      "inputs": [
        {
          "internalType": "uint256",
          "name": "diceId",
          "type": "uint256"
        }
      ],
      "name": "getDiceSides",
      "outputs": [
        {
          "internalType": "uint8",
          "name": "",
          "type": "uint8"
        }
      ],
      "payable": false,
      "stateMutability": "view",
      "type": "function"
    },
    {
      "constant": true,
      "inputs": [
        {
          "internalType": "uint256",
          "name": "diceId",
          "type": "uint256"
        }
      ],
      "name": "getDiceNumber",
      "outputs": [
        {
          "internalType": "uint8",
          "name": "",
          "type": "uint8"
        }
      ],
      "payable": false,
      "stateMutability": "view",
      "type": "function"
    },
    {
      "constant": true,
      "inputs": [
        {
          "internalType": "uint256",
          "name": "diceId",
          "type": "uint256"
        }
      ],
      "name": "getOwner",
      "outputs": [
        {
          "internalType": "address",
          "name": "",
          "type": "address"
        }
      ],
      "payable": false,
      "stateMutability": "view",
      "type": "function"
    },
    {
      "constant": true,
      "inputs": [
        {
          "internalType": "uint256",
          "name": "diceId",
          "type": "uint256"
        }
      ],
      "name": "getPrevOwner",
      "outputs": [
        {
          "internalType": "address",
          "name": "",
          "type": "address"
        }
      ],
      "payable": false,
      "stateMutability": "view",
      "type": "function"
    },
    {
      "constant": true,
      "inputs": [
        {
          "internalType": "uint256",
          "name": "diceId",
          "type": "uint256"
        }
      ],
      "name": "getDiceValue",
      "outputs": [
        {
          "internalType": "uint256",
          "name": "",
          "type": "uint256"
        }
      ],
      "payable": false,
      "stateMutability": "view",
      "type": "function"
    },
    {
      "constant": true,
      "inputs": [
        {
          "internalType": "address",
          "name": "ownerAddress",
          "type": "address"
        }
      ],
      "name": "getDices",
      "outputs": [
        {
          "internalType": "uint256[]",
          "name": "",
          "type": "uint256[]"
        }
      ],
      "payable": false,
      "stateMutability": "view",
      "type": "function"
    }
  ],
  "bytecode": "0x608060405260008055600060015534801561001957600080fd5b506115a2806100296000396000f3fe6080604052600436106100e85760003560e01c8063b7760c8f1161008a578063de2271fe11610059578063de2271fe14610540578063ee2fa39c1461056b578063f20e2bc2146105c0578063f2d03fcf14610613576100e8565b8063b7760c8f146103ed578063bb4e3f4d14610448578063bcb243c21461049a578063c41a360a146104c5576100e8565b806329265db0116100c657806329265db014610209578063912475ba14610258578063a819604c14610349578063a98c5b7114610398576100e8565b80631156f37e146100ed5780631e76dcdd146101935780631f7b4f30146101ce575b600080fd5b3480156100f957600080fd5b5061013c6004803603602081101561011057600080fd5b81019080803573ffffffffffffffffffffffffffffffffffffffff16906020019092919050505061068e565b6040518080602001828103825283818151815260200191508051906020019060200280838360005b8381101561017f578082015181840152602081019050610164565b505050509050019250505060405180910390f35b34801561019f57600080fd5b506101cc600480360360208110156101b657600080fd5b8101908080359060200190929190505050610814565b005b3480156101da57600080fd5b50610207600480360360208110156101f157600080fd5b8101908080359060200190929190505050610a0f565b005b34801561021557600080fd5b506102426004803603602081101561022c57600080fd5b8101908080359060200190929190505050610b7d565b6040518082815260200191505060405180910390f35b34801561026457600080fd5b506102916004803603602081101561027b57600080fd5b8101908080359060200190929190505050610d2b565b604051808860ff1660ff1681526020018760ff1660ff1681526020018660ff1660ff1681526020018560018111156102c557fe5b60ff1681526020018481526020018373ffffffffffffffffffffffffffffffffffffffff1673ffffffffffffffffffffffffffffffffffffffff1681526020018273ffffffffffffffffffffffffffffffffffffffff1673ffffffffffffffffffffffffffffffffffffffff16815260200197505050505050505060405180910390f35b34801561035557600080fd5b506103826004803603602081101561036c57600080fd5b8101908080359060200190929190505050610de1565b6040518082815260200191505060405180910390f35b3480156103a457600080fd5b506103d1600480360360208110156103bb57600080fd5b8101908080359060200190929190505050610e11565b604051808260ff1660ff16815260200191505060405180910390f35b3480156103f957600080fd5b506104466004803603604081101561041057600080fd5b8101908080359060200190929190803573ffffffffffffffffffffffffffffffffffffffff169060200190929190505050610e4e565b005b6104846004803603604081101561045e57600080fd5b81019080803560ff169060200190929190803560ff1690602001909291905050506110d9565b6040518082815260200191505060405180910390f35b3480156104a657600080fd5b506104af611333565b6040518082815260200191505060405180910390f35b3480156104d157600080fd5b506104fe600480360360208110156104e857600080fd5b810190808035906020019092919050505061133c565b604051808273ffffffffffffffffffffffffffffffffffffffff1673ffffffffffffffffffffffffffffffffffffffff16815260200191505060405180910390f35b34801561054c57600080fd5b5061055561138c565b6040518082815260200191505060405180910390f35b34801561057757600080fd5b506105a46004803603602081101561058e57600080fd5b8101908080359060200190929190505050611392565b604051808260ff1660ff16815260200191505060405180910390f35b3480156105cc57600080fd5b506105f9600480360360208110156105e357600080fd5b81019080803590602001909291905050506113cf565b604051808215151515815260200191505060405180910390f35b34801561061f57600080fd5b5061064c6004803603602081101561063657600080fd5b810190808035906020019092919050505061144d565b604051808273ffffffffffffffffffffffffffffffffffffffff1673ffffffffffffffffffffffffffffffffffffffff16815260200191505060405180910390f35b6060600080905060008090505b600154811015610725578373ffffffffffffffffffffffffffffffffffffffff166002600083815260200190815260200160002060020160009054906101000a900473ffffffffffffffffffffffffffffffffffffffff1673ffffffffffffffffffffffffffffffffffffffff1614156107185781806001019250505b808060010191505061069b565b506060816040519080825280602002602001820160405280156107575781602001602082028038833980820191505090505b509050600080905060008090505b600154811015610808578573ffffffffffffffffffffffffffffffffffffffff166002600083815260200190815260200160002060020160009054906101000a900473ffffffffffffffffffffffffffffffffffffffff1673ffffffffffffffffffffffffffffffffffffffff1614156107fb57808383815181106107e657fe5b60200260200101818152505081806001019250505b8080600101915050610765565b50819350505050919050565b803373ffffffffffffffffffffffffffffffffffffffff166002600083815260200190815260200160002060020160009054906101000a900473ffffffffffffffffffffffffffffffffffffffff1673ffffffffffffffffffffffffffffffffffffffff16146108cf576040517f08c379a000000000000000000000000000000000000000000000000000000000815260040180806020018281038252602481526020018061154a6024913960400191505060405180910390fd5b8160015481106108de57600080fd5b60006002600085815260200190815260200160002060000160036101000a81548160ff0219169083600181111561091157fe5b0217905550600060016002600086815260200190815260200160002060000160009054906101000a900460ff1660ff166001860142028161094e57fe5b06019050806002600086815260200190815260200160002060000160026101000a81548160ff021916908360ff1602179055507ffca7e5ead94c99a33f4db0e5e7ed5266f833f73d27b83852ab0429662c60f5bf8482604051808381526020018260ff1660ff1681526020019250505060405180910390a16002600085815260200190815260200160002060000160009054906101000a900460ff1660ff168160ff161415610a095760008081548092919060010191905055505b50505050565b803373ffffffffffffffffffffffffffffffffffffffff166002600083815260200190815260200160002060020160009054906101000a900473ffffffffffffffffffffffffffffffffffffffff1673ffffffffffffffffffffffffffffffffffffffff1614610aca576040517f08c379a000000000000000000000000000000000000000000000000000000000815260040180806020018281038252602481526020018061154a6024913960400191505060405180910390fd5b816001548110610ad957600080fd5b60016002600085815260200190815260200160002060000160036101000a81548160ff02191690836001811115610b0c57fe5b021790555060006002600085815260200190815260200160002060000160026101000a81548160ff021916908360ff1602179055507f168812357336ee7b54afff4280d17ba364831e5c2d0eb5a3fa2d2634e5e77a86836040518082815260200191505060405180910390a1505050565b6000813373ffffffffffffffffffffffffffffffffffffffff166002600083815260200190815260200160002060020160009054906101000a900473ffffffffffffffffffffffffffffffffffffffff1673ffffffffffffffffffffffffffffffffffffffff1614610c3a576040517f08c379a000000000000000000000000000000000000000000000000000000000815260040180806020018281038252602481526020018061154a6024913960400191505060405180910390fd5b826001548110610c4957600080fd5b60006002600086815260200190815260200160002060010154905060026000868152602001908152602001600020600080820160006101000a81549060ff02191690556000820160016101000a81549060ff02191690556000820160026101000a81549060ff02191690556000820160036101000a81549060ff021916905560018201600090556002820160006101000a81549073ffffffffffffffffffffffffffffffffffffffff02191690556003820160006101000a81549073ffffffffffffffffffffffffffffffffffffffff02191690555050809350505050919050565b60026020528060005260406000206000915090508060000160009054906101000a900460ff16908060000160019054906101000a900460ff16908060000160029054906101000a900460ff16908060000160039054906101000a900460ff16908060010154908060020160009054906101000a900473ffffffffffffffffffffffffffffffffffffffff16908060030160009054906101000a900473ffffffffffffffffffffffffffffffffffffffff16905087565b6000816001548110610df257600080fd5b6002600084815260200190815260200160002060010154915050919050565b6000816001548110610e2257600080fd5b6002600084815260200190815260200160002060000160029054906101000a900460ff16915050919050565b813373ffffffffffffffffffffffffffffffffffffffff166002600083815260200190815260200160002060020160009054906101000a900473ffffffffffffffffffffffffffffffffffffffff1673ffffffffffffffffffffffffffffffffffffffff1614610f09576040517f08c379a000000000000000000000000000000000000000000000000000000000815260040180806020018281038252602481526020018061154a6024913960400191505060405180910390fd5b826001548110610f1857600080fd5b60006002600086815260200190815260200160002060020160009054906101000a900473ffffffffffffffffffffffffffffffffffffffff1690506002600086815260200190815260200160002060020160009054906101000a900473ffffffffffffffffffffffffffffffffffffffff166002600087815260200190815260200160002060030160006101000a81548173ffffffffffffffffffffffffffffffffffffffff021916908373ffffffffffffffffffffffffffffffffffffffff160217905550836002600087815260200190815260200160002060020160006101000a81548173ffffffffffffffffffffffffffffffffffffffff021916908373ffffffffffffffffffffffffffffffffffffffff1602179055507f23701be9a8dc0cd7a68a8eccef9e0d687c4f08996820dde0b0a71070f5ccb3c1858286604051808481526020018373ffffffffffffffffffffffffffffffffffffffff1673ffffffffffffffffffffffffffffffffffffffff1681526020018273ffffffffffffffffffffffffffffffffffffffff1673ffffffffffffffffffffffffffffffffffffffff168152602001935050505060405180910390a15050505050565b6000808360ff16116110ea57600080fd5b662386f26fc1000034101561114a576040517f08c379a000000000000000000000000000000000000000000000000000000000815260040180806020018281038252602f81526020018061151b602f913960400191505060405180910390fd5b61115261149d565b6040518060e001604052808560ff1681526020018460ff16815260200160018660ff16428161117d57fe5b060160ff1681526020016000600181111561119457fe5b81526020013481526020013373ffffffffffffffffffffffffffffffffffffffff168152602001600073ffffffffffffffffffffffffffffffffffffffff168152509050600060016000815480929190600101919050559050816002600083815260200190815260200160002060008201518160000160006101000a81548160ff021916908360ff16021790555060208201518160000160016101000a81548160ff021916908360ff16021790555060408201518160000160026101000a81548160ff021916908360ff16021790555060608201518160000160036101000a81548160ff0219169083600181111561128857fe5b02179055506080820151816001015560a08201518160020160006101000a81548173ffffffffffffffffffffffffffffffffffffffff021916908373ffffffffffffffffffffffffffffffffffffffff16021790555060c08201518160030160006101000a81548173ffffffffffffffffffffffffffffffffffffffff021916908373ffffffffffffffffffffffffffffffffffffffff160217905550905050809250505092915050565b60008054905090565b600081600154811061134d57600080fd5b6002600084815260200190815260200160002060020160009054906101000a900473ffffffffffffffffffffffffffffffffffffffff16915050919050565b60015481565b60008160015481106113a357600080fd5b6002600084815260200190815260200160002060000160009054906101000a900460ff16915050919050565b60008160015481106113e057600080fd5b3373ffffffffffffffffffffffffffffffffffffffff166002600085815260200190815260200160002060020160009054906101000a900473ffffffffffffffffffffffffffffffffffffffff1673ffffffffffffffffffffffffffffffffffffffff1614915050919050565b600081600154811061145e57600080fd5b6002600084815260200190815260200160002060030160009054906101000a900473ffffffffffffffffffffffffffffffffffffffff16915050919050565b6040518060e00160405280600060ff168152602001600060ff168152602001600060ff168152602001600060018111156114d357fe5b815260200160008152602001600073ffffffffffffffffffffffffffffffffffffffff168152602001600073ffffffffffffffffffffffffffffffffffffffff168152509056fe6174206c6561737420302e303120455448206973206e656564656420746f20737061776e2061206e657720646963656f6e6c7920746865206f776e65722063616e207472616e73666572207468652064696365a265627a7a72315820e0ff09298769b627a8f40d5a03973dba4998af5a116009379c04918d0713fab464736f6c63430005110032",
  "source": "// SPDX-License-Identifier: UNLICENSED\npragma solidity ^0.5.0;\n\ncontract Dice {\n    //enum\n    enum diceState {\n        stationary,\n        rolling\n    }\n\n    //variables\n    uint256 luckyTimes = 0;\n    uint256 public numDices = 0;\n\n    //structs\n    struct dice {\n        uint8 numberOfSides;\n        uint8 color;\n        uint8 currentNumber;\n        diceState state;\n        uint256 creationValue;\n        address owner;\n        address prevOwner;\n    }\n    \n    //events\n    event rolling(uint256 diceId);\n    event rolled(uint256 diceId, uint8 newNumber);\n    event DiceTransferred(uint256 diceId, address from, address to);\n\n    //mapping, basically an array\n    mapping(uint256 => dice) public dices;\n\n    //modifiers\n    modifier ownerOnly(uint256 diceId) {\n        //ensures a function is callable only by its owner\n        require(dices[diceId].owner == msg.sender, \"only the owner can transfer the dice\");\n        _;\n    }\n\n    modifier validDiceId(uint256 diceId) {\n        //check valid of diceId\n        require(diceId < numDices);\n        _;\n    }\n\n    //functions\n    function destroyDice(uint256 diceId)\n        public\n        ownerOnly(diceId) \n        validDiceId(diceId) \n        returns (uint256)\n    {\n        uint256 eth = dices[diceId].creationValue;\n        //delete from state variable\n        delete dices[diceId];\n        return eth;\n    }\n\n    function add(uint8 numberOfSides, uint8 color)\n        public\n        payable\n        returns (uint256)\n    {\n        //to create a new dice, and add to 'dices' map. requires at least 0.01ETH to create\n        require(numberOfSides > 0);\n        require(\n            msg.value >= 0.01 ether,\n            \"at least 0.01 ETH is needed to spawn a new dice\"\n        );\n\n        //new dice object using the structs\n        dice memory newDice = dice(\n            numberOfSides,\n            color,\n            (uint8)(block.timestamp % numberOfSides) + 1, //currentNumber\n            diceState.stationary, //state\n            msg.value, //creationValue\n            msg.sender, //owner\n            address(0) //prevOwner\n        );\n\n        uint256 newDiceId = numDices++;\n        dices[newDiceId] = newDice; //commit to state variable\n        return newDiceId; //return new diceId\n    }\n\n    function roll(uint256 diceId) \n        public \n        ownerOnly(diceId) \n        validDiceId(diceId) \n    {\n        //roll a dice\n        dices[diceId].state = diceState.rolling; //set state to rolling\n        dices[diceId].currentNumber = 0; //number will become 0 while rolling\n        emit rolling(diceId); //emit rolling event\n    }\n\n    function stopRoll(uint256 diceId)\n        public\n        ownerOnly(diceId)\n        validDiceId(diceId)\n    {\n        //stop a rolling dice\n        dices[diceId].state = diceState.stationary; //set state to stationary\n        uint8 newNumber = (uint8)((block.timestamp * (diceId + 1)) % dices[diceId].numberOfSides) + 1; \n            //this is not a secure randomization\n        dices[diceId].currentNumber = newNumber;\n        emit rolled(diceId, newNumber); //emit rolled\n\n        //check if the roll is max\n        if (newNumber == dices[diceId].numberOfSides) luckyTimes++;\n    }\n\n    function transfer(uint256 diceId, address newOwner)\n        public\n        ownerOnly(diceId)\n        validDiceId(diceId)\n    {\n        address prevOwner = dices[diceId].owner;\n        //transfer ownership to new owner\n        dices[diceId].prevOwner = dices[diceId].owner;\n        dices[diceId].owner = newOwner;\n        emit DiceTransferred(diceId, prevOwner, newOwner);\n    }\n    \n    function amOwner(uint256 diceId)\n        public\n        view\n        validDiceId(diceId)\n        returns(bool)\n    {\n        return dices[diceId].owner == msg.sender;\n    }\n\n    //getters\n    function getLuckyTimes()\n        public\n        view\n        returns (uint256)\n    {\n        //get lucky times\n        return luckyTimes;\n    }\n\n    function getDiceSides(uint256 diceId)\n        public\n        view\n        validDiceId(diceId)\n        returns (uint8)\n    {\n        //get number of sides of dice\n        return dices[diceId].numberOfSides;\n    }\n\n    function getDiceNumber(uint256 diceId)\n        public\n        view\n        validDiceId(diceId)\n        returns (uint8)\n    {\n        //get current dice number\n        return dices[diceId].currentNumber;\n    }\n\n    function getOwner(uint256 diceId)\n        public\n        view\n        validDiceId(diceId)\n        returns (address)\n    {\n        //get current dice number\n        return dices[diceId].owner;\n    }\n\n    function getPrevOwner(uint256 diceId)\n        public\n        view\n        validDiceId(diceId)\n        returns (address)\n    {\n        //get current dice number\n        return dices[diceId].prevOwner;\n    }\n\n    function getDiceValue(uint256 diceId)\n        public\n        view\n        validDiceId(diceId)\n        returns (uint256)\n    {\n        //get ether put in during creation\n        return dices[diceId].creationValue;\n    }\n\n    function getDices(address ownerAddress)\n        public\n        view\n        returns (uint256[] memory)\n    {\n         // Calculate how many dice are owned by the address\n        uint256 count = 0;\n        for (uint256 i = 0; i < numDices; i++) {\n            if (dices[i].owner == ownerAddress) {\n                count++;\n            }\n        }\n\n        // Create a new array to hold the result\n        uint256[] memory ownedDices = new uint256[](count);\n\n        // Populate the array with dice IDs\n        uint256 index = 0;\n        for (uint256 i = 0; i < numDices; i++) {\n            if (dices[i].owner == ownerAddress) {\n                ownedDices[index] = i;\n                index++;\n            }\n        }\n\n        return ownedDices;\n    }\n}\n",
  "sourcePath": "/home/user/school/schoolstuff/IS4302 Blockchain and Distributed Ledger Technologies/lab/lab4/project/contracts/Dice.sol",
  "compiler": {
    "name": "solc",
    "version": "0.5.17+commit.d19bba13.Emscripten.clang"
  },
  "schemaVersion": "3.4.16",
  "updatedAt": "2024-10-19T17:04:35.628Z",
  "networkType": "ethereum",
  "devdoc": {
    "methods": {}
  },
  "userdoc": {
    "methods": {}
  }
}